{
  "_format": "hh-sol-artifact-1",
  "contractName": "LoginPage",
  "sourceName": "contracts/LoginPage.sol",
  "abi": [
    {
      "anonymous": false,
      "inputs": [
        {
          "indexed": true,
          "internalType": "address",
          "name": "account",
          "type": "address"
        }
      ],
      "name": "DataModified",
      "type": "event"
    },
    {
      "anonymous": false,
      "inputs": [
        {
          "indexed": true,
          "internalType": "bytes32",
          "name": "hashedMessage",
          "type": "bytes32"
        },
        {
          "indexed": true,
          "internalType": "address",
          "name": "recoveredAddress",
          "type": "address"
        },
        {
          "indexed": true,
          "internalType": "address",
          "name": "userWalletAddress",
          "type": "address"
        }
      ],
      "name": "LogValues",
      "type": "event"
    },
    {
      "anonymous": false,
      "inputs": [
        {
          "indexed": true,
          "internalType": "address",
          "name": "account",
          "type": "address"
        },
        {
          "indexed": false,
          "internalType": "uint256",
          "name": "password",
          "type": "uint256"
        }
      ],
      "name": "LoginAttempt",
      "type": "event"
    },
    {
      "anonymous": false,
      "inputs": [
        {
          "indexed": true,
          "internalType": "address",
          "name": "account",
          "type": "address"
        },
        {
          "indexed": false,
          "internalType": "uint256",
          "name": "password",
          "type": "uint256"
        }
      ],
      "name": "NewAccountCreated",
      "type": "event"
    },
    {
      "inputs": [
        {
          "internalType": "string",
          "name": "ipfsHash",
          "type": "string"
        },
        {
          "internalType": "uint256",
          "name": "serialNo",
          "type": "uint256"
        },
        {
          "internalType": "string",
          "name": "brandName",
          "type": "string"
        },
        {
          "internalType": "string",
          "name": "details",
          "type": "string"
        }
      ],
      "name": "checkProduct",
      "outputs": [
        {
          "internalType": "bool",
          "name": "",
          "type": "bool"
        }
      ],
      "stateMutability": "view",
      "type": "function"
    },
    {
      "inputs": [
        {
          "internalType": "bytes32",
          "name": "_messageHash",
          "type": "bytes32"
        }
      ],
      "name": "getEthSignedMessageHash",
      "outputs": [
        {
          "internalType": "bytes32",
          "name": "",
          "type": "bytes32"
        }
      ],
      "stateMutability": "pure",
      "type": "function"
    },
    {
      "inputs": [
        {
          "internalType": "string",
          "name": "_message",
          "type": "string"
        }
      ],
      "name": "getMessageHash",
      "outputs": [
        {
          "internalType": "bytes32",
          "name": "",
          "type": "bytes32"
        }
      ],
      "stateMutability": "pure",
      "type": "function"
    },
    {
      "inputs": [
        {
          "internalType": "address",
          "name": "_loginAccount",
          "type": "address"
        },
        {
          "internalType": "uint256",
          "name": "_passwordHash",
          "type": "uint256"
        }
      ],
      "name": "login",
      "outputs": [],
      "stateMutability": "nonpayable",
      "type": "function"
    },
    {
      "inputs": [
        {
          "internalType": "address",
          "name": "_modifyAccount",
          "type": "address"
        },
        {
          "internalType": "uint256",
          "name": "_newPasswordHash",
          "type": "uint256"
        }
      ],
      "name": "modifyData",
      "outputs": [],
      "stateMutability": "nonpayable",
      "type": "function"
    },
    {
      "inputs": [
        {
          "internalType": "address",
          "name": "_Newaccountaddr",
          "type": "address"
        },
        {
          "internalType": "string",
          "name": "_name",
          "type": "string"
        },
        {
          "internalType": "uint256",
          "name": "_passwordHash",
          "type": "uint256"
        }
      ],
      "name": "newAccount",
      "outputs": [],
      "stateMutability": "nonpayable",
      "type": "function"
    },
    {
      "inputs": [
        {
          "internalType": "string",
          "name": "",
          "type": "string"
        }
      ],
      "name": "products",
      "outputs": [
        {
          "internalType": "uint256",
          "name": "serialNo",
          "type": "uint256"
        },
        {
          "internalType": "string",
          "name": "brandName",
          "type": "string"
        },
        {
          "internalType": "string",
          "name": "details",
          "type": "string"
        }
      ],
      "stateMutability": "view",
      "type": "function"
    },
    {
      "inputs": [
        {
          "internalType": "bytes32",
          "name": "_ethSignedMessageHash",
          "type": "bytes32"
        },
        {
          "internalType": "bytes",
          "name": "_signature",
          "type": "bytes"
        }
      ],
      "name": "recoverSigner",
      "outputs": [
        {
          "internalType": "address",
          "name": "",
          "type": "address"
        }
      ],
      "stateMutability": "pure",
      "type": "function"
    },
    {
      "inputs": [
        {
          "internalType": "address",
          "name": "",
          "type": "address"
        }
      ],
      "name": "signUpData",
      "outputs": [
        {
          "internalType": "string",
          "name": "name",
          "type": "string"
        },
        {
          "internalType": "uint256",
          "name": "passwordHash",
          "type": "uint256"
        }
      ],
      "stateMutability": "view",
      "type": "function"
    },
    {
      "inputs": [
        {
          "internalType": "bytes",
          "name": "sig",
          "type": "bytes"
        }
      ],
      "name": "splitSignature",
      "outputs": [
        {
          "internalType": "bytes32",
          "name": "r",
          "type": "bytes32"
        },
        {
          "internalType": "bytes32",
          "name": "s",
          "type": "bytes32"
        },
        {
          "internalType": "uint8",
          "name": "v",
          "type": "uint8"
        }
      ],
      "stateMutability": "pure",
      "type": "function"
    },
    {
      "inputs": [
        {
          "internalType": "string",
          "name": "ipfsHash",
          "type": "string"
        },
        {
          "internalType": "uint256",
          "name": "_serialNo",
          "type": "uint256"
        },
        {
          "internalType": "string",
          "name": "brandName",
          "type": "string"
        },
        {
          "internalType": "string",
          "name": "details",
          "type": "string"
        }
      ],
      "name": "storeData",
      "outputs": [],
      "stateMutability": "nonpayable",
      "type": "function"
    },
    {
      "inputs": [
        {
          "internalType": "address",
          "name": "_signer",
          "type": "address"
        },
        {
          "internalType": "string",
          "name": "_message",
          "type": "string"
        },
        {
          "internalType": "bytes",
          "name": "signature",
          "type": "bytes"
        }
      ],
      "name": "verify",
      "outputs": [
        {
          "internalType": "bool",
          "name": "",
          "type": "bool"
        }
      ],
      "stateMutability": "pure",
      "type": "function"
    },
    {
      "inputs": [
        {
          "internalType": "address",
          "name": "_WalletAddress",
          "type": "address"
        }
      ],
      "name": "verifyUserOnBackend",
      "outputs": [
        {
          "internalType": "bool",
          "name": "",
          "type": "bool"
        }
      ],
      "stateMutability": "view",
      "type": "function"
    }
  ],
  "bytecode": "0x608060405234801561001057600080fd5b50611882806100206000396000f3fe608060405234801561001057600080fd5b50600436106100cf5760003560e01c8063a7bb58031161008c578063b6dcbc9b11610066578063b6dcbc9b14610261578063c6edf7fc14610291578063d7edd842146102ad578063fa540801146102c9576100cf565b8063a7bb5803146101e3578063b2e292f914610215578063b446f3b214610231576100cf565b80630186a423146100d45780632dd34f0f1461010657806367671bd0146101365780636be0229114610166578063726238191461019757806397aba7f9146101b3575b600080fd5b6100ee60048036038101906100e991906110b5565b6102f9565b6040516100fd939291906115b4565b60405180910390f35b610120600480360381019061011b9190610ed5565b610449565b60405161012d9190611437565b60405180910390f35b610150600480360381019061014b91906110f6565b6104a7565b60405161015d9190611437565b60405180910390f35b610180600480360381019061017b9190610eac565b610717565b60405161018e9291906114e9565b60405180910390f35b6101b160048036038101906101ac9190610fbb565b6107c3565b005b6101cd60048036038101906101c89190611020565b610921565b6040516101da919061141c565b60405180910390f35b6101fd60048036038101906101f89190611074565b610990565b60405161020c9392919061146d565b60405180910390f35b61022f600480360381019061022a9190610f54565b6109f8565b005b61024b600480360381019061024691906110b5565b610b4e565b6040516102589190611452565b60405180910390f35b61027b60048036038101906102769190610eac565b610b7e565b6040516102889190611437565b60405180910390f35b6102ab60048036038101906102a69190610fbb565b610bb6565b005b6102c760048036038101906102c291906110f6565b610c44565b005b6102e360048036038101906102de9190610ff7565b610cca565b6040516102f09190611452565b60405180910390f35b60008180516020810182018051848252602083016020850120818352809550505050505060009150905080600001549080600101805461033890611752565b80601f016020809104026020016040519081016040528092919081815260200182805461036490611752565b80156103b15780601f10610386576101008083540402835291602001916103b1565b820191906000526020600020905b81548152906001019060200180831161039457829003601f168201915b5050505050908060020180546103c690611752565b80601f01602080910402602001604051908101604052809291908181526020018280546103f290611752565b801561043f5780601f106104145761010080835404028352916020019161043f565b820191906000526020600020905b81548152906001019060200180831161042257829003601f168201915b5050505050905083565b60008061045584610b4e565b9050600061046282610cca565b90508573ffffffffffffffffffffffffffffffffffffffff166104858286610921565b73ffffffffffffffffffffffffffffffffffffffff1614925050509392505050565b6000806000866040516104ba91906113c4565b9081526020016040518091039020604051806060016040529081600082015481526020016001820180546104ed90611752565b80601f016020809104026020016040519081016040528092919081815260200182805461051990611752565b80156105665780601f1061053b57610100808354040283529160200191610566565b820191906000526020600020905b81548152906001019060200180831161054957829003601f168201915b5050505050815260200160028201805461057f90611752565b80601f01602080910402602001604051908101604052809291908181526020018280546105ab90611752565b80156105f85780601f106105cd576101008083540402835291602001916105f8565b820191906000526020600020905b8154815290600101906020018083116105db57829003601f168201915b50505050508152505090508360405160200161061491906113c4565b60405160208183030381529060405280519060200120816020015160405160200161063f91906113c4565b604051602081830303815290604052805190602001201480156106b157508260405160200161066e91906113c4565b60405160208183030381529060405280519060200120816040015160405160200161069991906113c4565b60405160208183030381529060405280519060200120145b801561070c5750846040516020016106c99190611401565b6040516020818303038152906040528051906020012081600001516040516020016106f49190611401565b60405160208183030381529060405280519060200120145b915050949350505050565b600160205280600052604060002060009150905080600001805461073a90611752565b80601f016020809104026020016040519081016040528092919081815260200182805461076690611752565b80156107b35780601f10610788576101008083540402835291602001916107b3565b820191906000526020600020905b81548152906001019060200180831161079657829003601f168201915b5050505050908060010154905082565b816000600160008373ffffffffffffffffffffffffffffffffffffffff1673ffffffffffffffffffffffffffffffffffffffff16815260200190815260200160002060010154141561084a576040517f08c379a000000000000000000000000000000000000000000000000000000000815260040161084190611539565b60405180910390fd5b81600160008573ffffffffffffffffffffffffffffffffffffffff1673ffffffffffffffffffffffffffffffffffffffff16815260200190815260200160002060010154146108ce576040517f08c379a00000000000000000000000000000000000000000000000000000000081526004016108c590611519565b60405180910390fd5b8273ffffffffffffffffffffffffffffffffffffffff167fde17a331e0cae640e1ee3070699c63a1a14d6e59251df58550a1e198d86668dc836040516109149190611599565b60405180910390a2505050565b60008060008061093085610990565b9250925092506001868285856040516000815260200160405260405161095994939291906114a4565b6020604051602081039080840390855afa15801561097b573d6000803e3d6000fd5b50505060206040510351935050505092915050565b600080600060418451146109d9576040517f08c379a00000000000000000000000000000000000000000000000000000000081526004016109d090611559565b60405180910390fd5b6020840151925060408401519150606084015160001a90509193909250565b6000600160008573ffffffffffffffffffffffffffffffffffffffff1673ffffffffffffffffffffffffffffffffffffffff1681526020019081526020016000206001015414610a7d576040517f08c379a0000000000000000000000000000000000000000000000000000000008152600401610a7490611579565b60405180910390fd5b604051806040016040528083815260200182815250600160008573ffffffffffffffffffffffffffffffffffffffff1673ffffffffffffffffffffffffffffffffffffffff1681526020019081526020016000206000820151816000019080519060200190610aed929190610cfa565b50602082015181600101559050508273ffffffffffffffffffffffffffffffffffffffff167f40d461e29d45a576cf669b92d826b96901aae6e9adf0ad7c00bf0a71c6b171ea82604051610b419190611599565b60405180910390a2505050565b600081604051602001610b6191906113c4565b604051602081830303815290604052805190602001209050919050565b60003373ffffffffffffffffffffffffffffffffffffffff168273ffffffffffffffffffffffffffffffffffffffff16149050919050565b80600160008473ffffffffffffffffffffffffffffffffffffffff1673ffffffffffffffffffffffffffffffffffffffff168152602001908152602001600020600101819055508173ffffffffffffffffffffffffffffffffffffffff167fde64ca97cbb5c4e9b9eec5bcff9e6dde008448c392912d9faf7087cdb370b2f560405160405180910390a25050565b604051806060016040528084815260200183815260200182815250600085604051610c6f91906113c4565b9081526020016040518091039020600082015181600001556020820151816001019080519060200190610ca3929190610cfa565b506040820151816002019080519060200190610cc0929190610cfa565b5090505050505050565b600081604051602001610cdd91906113db565b604051602081830303815290604052805190602001209050919050565b828054610d0690611752565b90600052602060002090601f016020900481019282610d285760008555610d6f565b82601f10610d4157805160ff1916838001178555610d6f565b82800160010185558215610d6f579182015b82811115610d6e578251825591602001919060010190610d53565b5b509050610d7c9190610d80565b5090565b5b80821115610d99576000816000905550600101610d81565b5090565b6000610db0610dab8461162a565b6115f9565b905082815260208101848484011115610dc857600080fd5b610dd3848285611710565b509392505050565b6000610dee610de98461165a565b6115f9565b905082815260208101848484011115610e0657600080fd5b610e11848285611710565b509392505050565b600081359050610e2881611807565b92915050565b600081359050610e3d8161181e565b92915050565b600082601f830112610e5457600080fd5b8135610e64848260208601610d9d565b91505092915050565b600082601f830112610e7e57600080fd5b8135610e8e848260208601610ddb565b91505092915050565b600081359050610ea681611835565b92915050565b600060208284031215610ebe57600080fd5b6000610ecc84828501610e19565b91505092915050565b600080600060608486031215610eea57600080fd5b6000610ef886828701610e19565b935050602084013567ffffffffffffffff811115610f1557600080fd5b610f2186828701610e6d565b925050604084013567ffffffffffffffff811115610f3e57600080fd5b610f4a86828701610e43565b9150509250925092565b600080600060608486031215610f6957600080fd5b6000610f7786828701610e19565b935050602084013567ffffffffffffffff811115610f9457600080fd5b610fa086828701610e6d565b9250506040610fb186828701610e97565b9150509250925092565b60008060408385031215610fce57600080fd5b6000610fdc85828601610e19565b9250506020610fed85828601610e97565b9150509250929050565b60006020828403121561100957600080fd5b600061101784828501610e2e565b91505092915050565b6000806040838503121561103357600080fd5b600061104185828601610e2e565b925050602083013567ffffffffffffffff81111561105e57600080fd5b61106a85828601610e43565b9150509250929050565b60006020828403121561108657600080fd5b600082013567ffffffffffffffff8111156110a057600080fd5b6110ac84828501610e43565b91505092915050565b6000602082840312156110c757600080fd5b600082013567ffffffffffffffff8111156110e157600080fd5b6110ed84828501610e6d565b91505092915050565b6000806000806080858703121561110c57600080fd5b600085013567ffffffffffffffff81111561112657600080fd5b61113287828801610e6d565b945050602061114387828801610e97565b935050604085013567ffffffffffffffff81111561116057600080fd5b61116c87828801610e6d565b925050606085013567ffffffffffffffff81111561118957600080fd5b61119587828801610e6d565b91505092959194509250565b6111aa816116b1565b82525050565b6111b9816116c3565b82525050565b6111c8816116cf565b82525050565b6111df6111da826116cf565b611784565b82525050565b60006111f08261168a565b6111fa8185611695565b935061120a81856020860161171f565b611213816117f6565b840191505092915050565b60006112298261168a565b61123381856116a6565b935061124381856020860161171f565b80840191505092915050565b600061125c601c836116a6565b91507f19457468657265756d205369676e6564204d6573736167653a0a3332000000006000830152601c82019050919050565b600061129c600e83611695565b91507f57726f6e672070617373776f72640000000000000000000000000000000000006000830152602082019050919050565b60006112dc601683611695565b91507f4163636f756e7420646f6573206e6f74206578697374000000000000000000006000830152602082019050919050565b600061131c601883611695565b91507f696e76616c6964207369676e6174757265206c656e67746800000000000000006000830152602082019050919050565b600061135c601683611695565b91507f4163636f756e7420616c726561647920657869737473000000000000000000006000830152602082019050919050565b611398816116f9565b82525050565b6113af6113aa826116f9565b61178e565b82525050565b6113be81611703565b82525050565b60006113d0828461121e565b915081905092915050565b60006113e68261124f565b91506113f282846111ce565b60208201915081905092915050565b600061140d828461139e565b60208201915081905092915050565b600060208201905061143160008301846111a1565b92915050565b600060208201905061144c60008301846111b0565b92915050565b600060208201905061146760008301846111bf565b92915050565b600060608201905061148260008301866111bf565b61148f60208301856111bf565b61149c60408301846113b5565b949350505050565b60006080820190506114b960008301876111bf565b6114c660208301866113b5565b6114d360408301856111bf565b6114e060608301846111bf565b95945050505050565b6000604082019050818103600083015261150381856111e5565b9050611512602083018461138f565b9392505050565b600060208201905081810360008301526115328161128f565b9050919050565b60006020820190508181036000830152611552816112cf565b9050919050565b600060208201905081810360008301526115728161130f565b9050919050565b600060208201905081810360008301526115928161134f565b9050919050565b60006020820190506115ae600083018461138f565b92915050565b60006060820190506115c9600083018661138f565b81810360208301526115db81856111e5565b905081810360408301526115ef81846111e5565b9050949350505050565b6000604051905081810181811067ffffffffffffffff821117156116205761161f6117c7565b5b8060405250919050565b600067ffffffffffffffff821115611645576116446117c7565b5b601f19601f8301169050602081019050919050565b600067ffffffffffffffff821115611675576116746117c7565b5b601f19601f8301169050602081019050919050565b600081519050919050565b600082825260208201905092915050565b600081905092915050565b60006116bc826116d9565b9050919050565b60008115159050919050565b6000819050919050565b600073ffffffffffffffffffffffffffffffffffffffff82169050919050565b6000819050919050565b600060ff82169050919050565b82818337600083830152505050565b60005b8381101561173d578082015181840152602081019050611722565b8381111561174c576000848401525b50505050565b6000600282049050600182168061176a57607f821691505b6020821081141561177e5761177d611798565b5b50919050565b6000819050919050565b6000819050919050565b7f4e487b7100000000000000000000000000000000000000000000000000000000600052602260045260246000fd5b7f4e487b7100000000000000000000000000000000000000000000000000000000600052604160045260246000fd5b6000601f19601f8301169050919050565b611810816116b1565b811461181b57600080fd5b50565b611827816116cf565b811461183257600080fd5b50565b61183e816116f9565b811461184957600080fd5b5056fea2646970667358221220148a2e08cdafae0805ed6f697c309800b8310271d0d05e4bacdf4a9bb14f27ed64736f6c63430008000033",
  "linkReferences": {},
  "deployedLinkReferences": {}
}